:020000020000FC
:0200000045C0F9
:10008C000FEF0DBF00E10EBF0FEF07BB00E008BB89
:10009C0000E001BB0FEF02BB04E00EBD3CD111D060
:1000AC008824882711E400B30E3F09F446D00F3E94
:1000BC0009F47ED00F3B09F4D9D00F37A1F7F2D059
:1000CC00F2CFAF93BF93EF93FF930F93A0E0B1E008
:1000DC00E6E5F5E0E63619F005910D93FBCFA0E1CE
:1000EC00B1E0E6E6F5E0E63719F005910D93FBCFAC
:1000FC0051D10F91FF91EF91BF91AF910895AF93B3
:10010C00BF93EF93FF930F936BD1A0E0B1E0E6E7C1
:10011C00F5E0E63819F005910D93FBCF3ED170D187
:10012C00A0E1B1E001E40C9348D12A2F3B2F0F91B1
:10013C00FF91EF91BF91AF9108950F9300E080165E
:10014C0029F48394DCDFCAD00F9108952395E6E857
:10015C00F5E0A0E0B2E001E4712F701B972F703036
:10016C0019F07A953296FBCF782F703019F07A957A
:10017C001196FBCF04910C93792FEAEBF5E0A0E1FB
:10018C00B2E0703019F07A953296FBCF782F703040
:10019C0019F07A951196FBCF04910C9311E45AD077
:1001AC0083959CD0082F003109F402D00F9108954B
:1001BC000F937F9300E08016B1F0082F003099F078
:1001CC0015D0A0E0B2E0C0E1D2E0782F703029F079
:1001DC0000270D9309937A95F9CF882711E420E134
:1001EC0031E00ED137D07F910F9108950F937F930B
:1001FC009F9399277727A0E0B2E0C0E1D2E0782F57
:10020C00703081F00D919991903041F0000F10F009
:10021C000FD001C015D072D09A95F6CF6FD06ED09A
:10022C007A95EECF00E008BB9F917F910F910895D6
:10023C000F9300EF08BB62D000E108BB0F9108954B
:10024C000F9300EF08BB5AD059D058D000E108BB2F
:10025C000F9108950F93BF93AF93B32FA22F012F3C
:10026C000C93ABD0AF91BF910F910895AF93BF9307
:10027C00EF93FF930F9300E0801629F01A3549F0A5
:10028C001395E8DF2BD00F91FF91EF91BF91AF91B8
:10029C00089511E4DFDF22D00F91FF91EF91BF9110
:1002AC00AF910895AF93BF93EF93FF930F9300E03B
:1002BC00801629F0113449F01A95CCDF0FD00F912C
:1002CC00FF91EF91BF91AF9108951AE5C3DF06D06E
:1002DC000F91FF91EF91BF91AF9108954F935F9361
:1002EC006F934FE060EE5DEE5A95F1F76A95D9F792
:1002FC004A95C1F76F915F914F9108950F93002725
:10030C000DBD0CBD04E006BF06B70470E9F304E0B4
:10031C0006BF0F9108950F930FB70F931F9300E033
:10032C0008BB0FEF07BB00E002BB00E001BB00E025
:10033C000093620008E00093610000E50DB901E054
:10034C000EB900E805BF02E400936D0000E80093CD
:10035C006C0000E00BB908E10AB906E000939500C7
:10036C0000E00093900007E609B906E01AEFBFD051
:10037C000A95E1F708E397D008E095D001E093D017
:10038C0006E091D00CE08FD028D01F910F910FBFB9
:10039C000F91089502D011D008950F93EF93FF930E
:1003AC002F933F93E0E0F1E030E86BD076D03F91B3
:1003BC002F91FF91EF910F9108950F93EF93FF936E
:1003CC002F933F93E0E1F1E030EC5BD066D03F91AE
:1003DC002F91FF91EF910F91089502D011D00895B4
:1003EC000F933F932F93EF93FF9330E84AD0E0E0C5
:1003FC00F1E04CD0FF91EF912F913F910F91089527
:10040C000F933F932F93EF93FF9330EC3AD0E0E1AF
:10041C00F1E03CD0FF91EF912F913F910F91089516
:10042C000F933F932F93283250F4313011F430E86E
:10043C0003C0323021F430EC320F23D042D02F9154
:10044C003F910F9108950F936F935F93BF93AF9369
:10045C00043618F023E0139607C00A3018F022E097
:10046C00129602C0119621E04AD000E3060F0E93BB
:10047C00052F0030C9F7AF91BF915F916F910F912C
:10048C0008950F93032F0FD00F91089500E220E1F0
:10049C00019317D02A95E1F7089520E1019111D02D
:1004AC002A95E1F708954F931F9340E013D00F93D3
:1004BC0002E01DEC1CD00A95E1F70F911F914F91B2
:1004CC0008954F931F9341E005D010E110D01F9178
:1004DC004F9108954FB912E00AD00FB912E007D02E
:1004EC0018E01093620010E01093620008950F93CF
:1004FC0009E40A95F1F71A95D9F70F9108950F921F
:10050C00502F56955695500F5695500F569556950B
:10051C005695500F5695500F569556955695500F1B
:10052C005695500F5695569556955695652F660FC0
:10053C00660F650F660F062E602F60196A3018F073
:10054C0053956A50FBCF0F90089557656C636F6D90
:10055C0065212020202020202020506C65617365AF
:10056C0020707265737320504430456E7465722030
:10057C00576F72643A202020202040008000A00099
:10058C00800000002000C000000000007000A000EF
:10059C004000C0008000E0006000D000400000007F
:1005AC0080002000100060009000B000C00002002D
:1005BC000400040003000100040003000400020016
:1005CC000400030004000200020003000400040005
:1005DC0003000300010003000400030004000400F6
:0205EC00040009
:00000001FF
