:020000020000FC
:0200000045C0F9
:10008C000FEF0DBF00E10EBF7727E2EDF9E0B1E015
:10009C00A2E005910D9305910D9300270C93E4EDCF
:1000AC00F9E0B1E0A0E005910D9305910D93E6ED1B
:1000BC00F9E0B1E0A6E005910D9305910D930027B1
:1000CC000C93B1E0A9E001E00D9300270D93F9E04A
:1000DC00EEED4491F9E0E0EE403019F034964A959B
:1000EC00FBCFB2E0A0E005910D9305910D93059126
:1000FC000D9305910D93F9E0ECEDB2E0A0E10591C3
:10010C000D9305910D93B2E0A0E1D1E0C0E00E9407
:10011C005B0238F40FEFA3E0BEE00D930D930C944B
:10012C00EC04B2E0A0E0D1E0C2E00E94240240F472
:10013C000FEFACE0BEE00D930D930D930C94EC041B
:10014C00B2E0A0E0D2E0C0E20D9109930D910993C9
:10015C000D9109930D910993B2E0A0E1D2E0C4E2B4
:10016C000D9109930D9109930E946E01BEE0A0E0E0
:10017C00D2E0C8E209910D9309910D9309910D9369
:10018C00BEE0A0E0D2E0C0E60D9109930D91099379
:10019C000D9109930E946E02BEE0A3E0D1E0C9E08C
:1001AC000E945B0230F40EEF0D930FEF0C930C9446
:1001BC00EC04B2E0A0E1C0EBD2E00D9109930D91FB
:1001CC000993C2EBD2E0B2E0A0E10D9109930D913D
:1001DC0009930E942F04C0E9D2E0B2E0A0EC0D918B
:1001EC0009930D9109930D9109930D910993B2E027
:1001FC00A0EC00270D930D930D930D93B2E0A0E1AD
:10020C00C0EBD2E00D9109930D910993C2EBD2E0B2
:10021C0008E20993002709930E942F04C4E9D2E055
:10022C00B2E0A0EC0D9109930D9109930D910993F6
:10023C000D9109930E94F003BEE0A5E0F2E0E0ED21
:10024C000D9101930D9101930D9101930D910193DA
:10025C000D9101930D9101930D910193F2E0E8ED55
:10026C00B2E0A0E00D9101930D9101930D910193DA
:10027C000D91019300270193019301930E94FA02BF
:10028C00B2E0A0EED2E0C0E60D9109930D91099376
:10029C000D9109930D9109930D9109930D9109936A
:1002AC000D9109930D9109930E948F04B3E0A0EF77
:1002BC00D1E0C6E00E94410248F40EEFACE0BEE093
:1002CC000D930FEF0D930D930C94EC040C94EC0424
:1002DC00BF93AF93DF93CF93FF93EF930F921F9244
:1002EC002F923F928F929F92AF92BF920F931F9338
:1002FC002F933F935F936F9377270024112422242D
:10030C00332488249924AA24BB24002711272227CC
:10031C00332755276627B2E0A0E20D901D902D9053
:10032C003D90B2E0A4E20D911D9161E288189924F0
:10033C00AA24BB24001C111C221C331C6A9589F0B6
:10034C00881C991CAA1CBB1C801A910AA70AB70A04
:10035C0030F4800E911EA71EB71E8894EBCF089424
:10036C00E9CFB2E0A8E25C91500D5D935C91511D18
:10037C005D935C91521D5D935C91531D5D93B2E056
:10038C00ABE28D929D92AD92BD92B2E0ABE2D2E027
:10039C00C4E20E94240258F051F0082C192C2A2C8B
:1003AC003B2C88249924AA24BB240C949B011695DD
:1003BC000795D2E0C4E209931993B2E0ABE2D2E024
:1003CC00C4E20E94240288F000273327B2E0A8E29E
:1003DC0031E00C91030F0D930C91071F0D930C91B1
:1003EC00071F0D930C91071F0D936F915F913F9118
:1003FC002F911F910F91BF90AF909F908F903F9036
:10040C002F901F900F90EF91FF91CF91DF91AF91B3
:10041C00BF9108950F93AF93BF93DF93CF930027B2
:10042C000D930D930D930D930993099309930993D0
:10043C00CF91DF91BF91AF910F910895BF93AF937F
:10044C00DF93CF93FF93EF930F933F930D913991DC
:10045C0003170D91399103070D91399103070D91F4
:10046C00399103073F910F91EF91FF91CF91DF915C
:10047C00AF91BF910895BF93AF93DF93CF93FF9349
:10048C00EF930F933F930D91399103170D91399180
:10049C0003070D91399103073F910F91EF91FF9154
:1004AC00CF91DF91AF91BF910895BF93AF93DF933D
:1004BC00CF930F933F930D91399103170D91399170
:1004CC0003073F910F91CF91DF91AF91BF910895A9
:1004DC000F932F931F930027222711270E94AE0200
:1004EC00B2E0A3E7D2E0C0E7F2E0E0E50E94100240
:1004FC00019109930D93019109930D930191099326
:10050C000D930F93F2E0E0E8002701930193019320
:10051C000193019301930F910E94C002B2E0A0E8F5
:10052C00D2E0C0E60E942402C8F2B2E0A0E5FEE0F0
:10053C00E3E01D9121E0121B11931D912227120B58
:10054C0011931D91120B11931F912F910F910895DF
:10055C000F933F93B2E0A0E531E00C91030F0D93A4
:10056C0033270C91031F0D930C91031F0D933F9197
:10057C000F9108953F924F921F920F927F93BF93CA
:10058C00AF93DF93CF93FF93EF931F932F93772723
:10059C00C0E7D2E0E0E8F2E013E0A3E7B2E023E04A
:1005AC003D904880349C31904190030C141C319048
:1005BC003081371E371F308332921292029231965D
:1005CC002A9571F7329721961A9539F72F911F9129
:1005DC00EF91FF91CF91DF91AF91BF917F910F90F0
:1005EC001F904F903F900895BF93AF93DF93CF939D
:1005FC00FF93EF930F921F922F923F924F925F9225
:10060C006F927F928F929F92AF92BF92CF92DF9216
:10061C00EF92FF920F931F932F933F935F936F93E0
:10062C0077270024112422243324442455246624BF
:10063C00772488249924AA24BB24CC24DD24EE24FA
:10064C00FF2400271127222755276627B2E0A0EDAB
:10065C000D901D902D903D904D905D906D907D90E6
:10066C00B2E0A8ED0D911D912D913D9161E488189A
:10067C009924AA24BB24CC24DD24EE24FF24001CC2
:10068C00111C221C331C441C551C661C771C6A95BF
:10069C00E9F0881C991CAA1CBB1CCC1CDD1CEE1C94
:1006AC00FF1C801A910AA20AB30AC70AD70AE70AE2
:1006BC00F70A50F4800E911EA21EB31EC71ED71E41
:1006CC00E71EF71E8894DBCF0894D9CFB2E0A0EEDA
:1006DC005C91500D5D935C91511D5D935C91521D2D
:1006EC005D935C91531D5D935C91541D5D935C9186
:1006FC00551D5D935C91561D5D935C91571D5D93EB
:10070C00B2E0A0EF8D929D92AD92BD92CD92DD9212
:10071C00ED92FD92B2E0A0EFD2E0C8ED0E9466042B
:10072C0098F091F0082C192C2A2C3B2C4C2C5D2C7D
:10073C006E2C7F2C88249924AA24BB24CC24DD2461
:10074C00EE24FF240C943C033695279517950795BA
:10075C00D2E0C8ED0993199329933993B2E0A0EF35
:10076C00D2E0C8ED0E946604C0F00027332777273B
:10077C00B2E0A0EE31E00C91030F0D930C91071F2A
:10078C000D930C91071F0D930C91071F0D930C915A
:10079C00071F0D930C91071F0D936F915F913F9164
:1007AC002F911F910F91FF90EF90DF90CF90BF9002
:1007BC00AF909F908F907F906F905F904F903F90F5
:1007CC002F901F900F90EF91FF91CF91DF91AF91F0
:1007DC00BF9108953F924F921F920F927F93BF93B8
:1007EC00AF93DF93CF93FF93EF931F932F934F937D
:1007FC007727C0E9D2E0E5E0FEE014E0A4E9B2E03E
:10080C0024E03D904880349C31904190030C141CA2
:10081C00319031914081371E371F471F40833293EF
:10082C0032921292029231962A9559F73397219669
:10083C001A9521F74F912F911F91EF91FF91CF9125
:10084C00DF91AF91BF917F910F901F904F903F9090
:10085C0008953F924F921F920F927F93BF93AF9345
:10086C00DF93CF93FF93EF931F932F937727C0EBD7
:10087C00D2E0E0ECF2E012E0A2EBB2E022E03D903C
:10088C004880349C31904190030C141C3080371EEE
:10089C0030821292029231962A9589F731972196DD
:1008AC001A9551F72F911F91EF91FF91CF91DF91F5
:1008BC00AF91BF917F910F901F904F903F900895F3
:1008CC00BF93AF93DF93CF93FF93EF930F933F932C
:1008DC000D91399103170D91399103070D913991B0
:1008EC0003070D91399103070D91399103070D9170
:1008FC00399103070D91399103070D913991030734
:10090C003F910F91EF91FF91CF91DF91AF91BF91FB
:10091C0008950F932F931F93002722271127B2E0DE
:10092C00A0E80D930D930D930D930D930D930E94D1
:10093C00D704B2E0A3E7D2E0C0E7F3E0E0EF0E9417
:10094C001002019109930D93019109930D9301915B
:10095C0009930D930F93F2E0E0E8002701930193C4
:10096C0001930193019301930F910E94C002B2E095
:10097C00A0E8D2E0C0E60E946604C8F2B3E0A0EFA3
:10098C00FEE0ECE01D9121E0121B11931D9122273A
:10099C00120B11931D91120B11931F912F910F910B
:1009AC0008950F933F93B3E0A0EF31E00C91030F48
:1009BC000D9333270C91031F0D930C91031F0D9373
:1009CC003F910F910895E903E80319000000FECF51
:1009DC00641902000E56000024F5040008150600E8
:1009EC004EA7000030138D07F8C74202D06858009C
:0809FC00384B6800FFFFFFFF0C
:00000001FF
