:020000020000FC
:0200000045C0F9
:10008C000FEF0DBF00E10EBF2224E4E3F3E0C0E16B
:10009C00D1E00591099304910883E6E3F3E0C2E112
:1000AC00D1E0059109930491088300000E94A800F7
:1000BC000000E8E3F3E0C0E3D1E00591099304917B
:1000CC000883EAE3F3E0C2E3D1E0059109930491DC
:1000DC00088300000E94B9000000ECE3F3E0C9E4DF
:1000EC00D1E0059109930591099304910883EEE3FE
:1000FC00F3E0CCE4D1E005910993059109930491C7
:10010C00088300000E94C8000000E2E4F3E0C0E7AE
:10011C00D1E00591099304910883E4E4F3E0C2E78C
:10012C00D1E00591099304910883E6E4F3E0C4E778
:10013C00D1E0059109930491088300000E942001ED
:10014C000000FFCFA0E1B1E0C2E1D1E0E0E2F1E0DC
:10015C001D912991210F21931C912881211F2193FD
:10016C0008F4B0830895A0E3B1E0C2E3D1E0E0E489
:10017C00F1E01D912991121B11931C912881120BF6
:10018C00119308953F924F921F920F922F92BF930B
:10019C00AF93DF93CF93FF93EF931F932F9322246F
:1001AC00C9E4D1E0E0E6F1E013E0ACE4B1E023E037
:1001BC003D904880349C31904190030C141C31903C
:1001CC003081321C321D308332921292029231965F
:1001DC002A9571F7329721961A9539F72F911F911D
:1001EC00EF91FF91CF91DF91AF91BF912F900F9035
:1001FC001F904F903F9008952224A0E6B1E02D92DD
:10020C002D922D922D922D922D92A0E2B1E02D9255
:10021C002D922D92A0E4B1E02D922D922D92A9E475
:10022C00B1E02D922D922D92ACE4B1E02D922D9255
:10023C002D920895E1DFE2E4F3E0A0E3B1E0059153
:10024C000D9304910C93E4E4F3E0A2E3B1E0059187
:10025C000D9304910C930E94B900E0E4F1E0A0E14D
:10026C00B1E001910D9300810C93E6E4F3E0A2E17F
:10027C00B1E005910D9304910C930E94A800E0E26B
:10028C00F1E0A9E4B1E001910D9300810C93E0E25F
:10029C00F1E0ACE4B1E001910D9300810C930E946C
:1002AC00C800E0E6F1E0A0E8B1E046E0403021F023
:1002BC0001910D934A95FACF08953F924F921F9258
:1002CC000F922F92BF93AF93DF93CF93FF93EF9344
:1002DC001F932F932224C2E0D1E0E4E0F1E012E07E
:1002EC00A0E0B1E022E03D904880349C31904190F8
:1002FC00030C141C3080321C308212920292319604
:10030C002A9589F7319721961A9551F72F911F91BC
:10031C00EF91FF91CF91DF91AF91BF912F900F9003
:10032C001F904F903F900895BAFCFFFFB9FC20E45A
:0C033C00FFFFFFFFFFFFBAFC1920BB21F0
:00000001FF
