:020000020000FC
:0200000045C0F9
:1000040070D0189560D0189585D0189578D018952B
:10008C000FEF0DBF00E10EBF0FEF07BB00E008BB89
:10009C0000E001BB0FEF02BB0AE500936A000FE022
:1000AC0009BF09E603BF0FEF01BF09E605BD0FEF5E
:1000BC0003BD10E000E608BB20E67894FFCF31D0FA
:1000CC0001B7003039F031E1031B01BF03BD2395AB
:1000DC0028BB13950FE008BF089523D001B70F3F3D
:1000EC0039F031E1030F01BF03BD1A952A9528BBE6
:1000FC000FE008BF089515D030E031BF33BD2FE6B7
:10010C0028BB3FE0132F0FE008BF08950AD03FEF44
:10011C0031BF33BD20EF28BB30E0132F0FE008BFF9
:10012C0008951F932F933F9314E130EE2DEE2A95F3
:10013C00F1F73A95D9F71A95C1F73F912F911F9185
:02014C00089514
:00000001FF
